{
  "_format": "hh-sol-artifact-1",
  "contractName": "MyEpicGame",
  "sourceName": "contracts/MyEpicGame.sol",
  "abi": [
    {
      "inputs": [
        {
          "internalType": "string[]",
          "name": "characterNames",
          "type": "string[]"
        },
        {
          "internalType": "string[]",
          "name": "characterImageURIs",
          "type": "string[]"
        },
        {
          "internalType": "uint256[]",
          "name": "characterHp",
          "type": "uint256[]"
        },
        {
          "internalType": "uint256[]",
          "name": "characterAttackDmg",
          "type": "uint256[]"
        },
        {
          "internalType": "string",
          "name": "bossName",
          "type": "string"
        },
        {
          "internalType": "string",
          "name": "bossImage",
          "type": "string"
        },
        {
          "internalType": "uint256",
          "name": "bossHp",
          "type": "uint256"
        },
        {
          "internalType": "uint256",
          "name": "bossAttackDmg",
          "type": "uint256"
        }
      ],
      "stateMutability": "nonpayable",
      "type": "constructor"
    },
    {
      "anonymous": false,
      "inputs": [
        {
          "indexed": true,
          "internalType": "address",
          "name": "owner",
          "type": "address"
        },
        {
          "indexed": true,
          "internalType": "address",
          "name": "approved",
          "type": "address"
        },
        {
          "indexed": true,
          "internalType": "uint256",
          "name": "tokenId",
          "type": "uint256"
        }
      ],
      "name": "Approval",
      "type": "event"
    },
    {
      "anonymous": false,
      "inputs": [
        {
          "indexed": true,
          "internalType": "address",
          "name": "owner",
          "type": "address"
        },
        {
          "indexed": true,
          "internalType": "address",
          "name": "operator",
          "type": "address"
        },
        {
          "indexed": false,
          "internalType": "bool",
          "name": "approved",
          "type": "bool"
        }
      ],
      "name": "ApprovalForAll",
      "type": "event"
    },
    {
      "anonymous": false,
      "inputs": [
        {
          "indexed": false,
          "internalType": "uint256",
          "name": "newPlayerHp",
          "type": "uint256"
        },
        {
          "indexed": false,
          "internalType": "uint256",
          "name": "newBossHp",
          "type": "uint256"
        }
      ],
      "name": "AttackComplete",
      "type": "event"
    },
    {
      "anonymous": false,
      "inputs": [
        {
          "indexed": false,
          "internalType": "address",
          "name": "sender",
          "type": "address"
        },
        {
          "indexed": false,
          "internalType": "uint256",
          "name": "tokenId",
          "type": "uint256"
        },
        {
          "indexed": false,
          "internalType": "uint256",
          "name": "characterIndex",
          "type": "uint256"
        }
      ],
      "name": "CharacterNFTMinted",
      "type": "event"
    },
    {
      "anonymous": false,
      "inputs": [
        {
          "indexed": true,
          "internalType": "address",
          "name": "from",
          "type": "address"
        },
        {
          "indexed": true,
          "internalType": "address",
          "name": "to",
          "type": "address"
        },
        {
          "indexed": true,
          "internalType": "uint256",
          "name": "tokenId",
          "type": "uint256"
        }
      ],
      "name": "Transfer",
      "type": "event"
    },
    {
      "inputs": [
        {
          "internalType": "address",
          "name": "to",
          "type": "address"
        },
        {
          "internalType": "uint256",
          "name": "tokenId",
          "type": "uint256"
        }
      ],
      "name": "approve",
      "outputs": [],
      "stateMutability": "nonpayable",
      "type": "function"
    },
    {
      "inputs": [],
      "name": "attackBoss",
      "outputs": [],
      "stateMutability": "nonpayable",
      "type": "function"
    },
    {
      "inputs": [
        {
          "internalType": "address",
          "name": "owner",
          "type": "address"
        }
      ],
      "name": "balanceOf",
      "outputs": [
        {
          "internalType": "uint256",
          "name": "",
          "type": "uint256"
        }
      ],
      "stateMutability": "view",
      "type": "function"
    },
    {
      "inputs": [],
      "name": "bigBoss",
      "outputs": [
        {
          "internalType": "string",
          "name": "name",
          "type": "string"
        },
        {
          "internalType": "string",
          "name": "imageURI",
          "type": "string"
        },
        {
          "internalType": "uint256",
          "name": "hp",
          "type": "uint256"
        },
        {
          "internalType": "uint256",
          "name": "maxHp",
          "type": "uint256"
        },
        {
          "internalType": "uint256",
          "name": "attackDamage",
          "type": "uint256"
        }
      ],
      "stateMutability": "view",
      "type": "function"
    },
    {
      "inputs": [],
      "name": "checkIfUserHasNFT",
      "outputs": [
        {
          "components": [
            {
              "internalType": "uint256",
              "name": "characterIndex",
              "type": "uint256"
            },
            {
              "internalType": "string",
              "name": "name",
              "type": "string"
            },
            {
              "internalType": "string",
              "name": "imageURI",
              "type": "string"
            },
            {
              "internalType": "uint256",
              "name": "hp",
              "type": "uint256"
            },
            {
              "internalType": "uint256",
              "name": "maxHp",
              "type": "uint256"
            },
            {
              "internalType": "uint256",
              "name": "attackDamage",
              "type": "uint256"
            }
          ],
          "internalType": "struct MyEpicGame.CharacterAttributes",
          "name": "",
          "type": "tuple"
        }
      ],
      "stateMutability": "view",
      "type": "function"
    },
    {
      "inputs": [
        {
          "internalType": "uint256",
          "name": "tokenId",
          "type": "uint256"
        }
      ],
      "name": "getApproved",
      "outputs": [
        {
          "internalType": "address",
          "name": "",
          "type": "address"
        }
      ],
      "stateMutability": "view",
      "type": "function"
    },
    {
      "inputs": [],
      "name": "getBigBoss",
      "outputs": [
        {
          "components": [
            {
              "internalType": "string",
              "name": "name",
              "type": "string"
            },
            {
              "internalType": "string",
              "name": "imageURI",
              "type": "string"
            },
            {
              "internalType": "uint256",
              "name": "hp",
              "type": "uint256"
            },
            {
              "internalType": "uint256",
              "name": "maxHp",
              "type": "uint256"
            },
            {
              "internalType": "uint256",
              "name": "attackDamage",
              "type": "uint256"
            }
          ],
          "internalType": "struct MyEpicGame.BigBoss",
          "name": "",
          "type": "tuple"
        }
      ],
      "stateMutability": "view",
      "type": "function"
    },
    {
      "inputs": [],
      "name": "getDefaultCharacters",
      "outputs": [
        {
          "components": [
            {
              "internalType": "uint256",
              "name": "characterIndex",
              "type": "uint256"
            },
            {
              "internalType": "string",
              "name": "name",
              "type": "string"
            },
            {
              "internalType": "string",
              "name": "imageURI",
              "type": "string"
            },
            {
              "internalType": "uint256",
              "name": "hp",
              "type": "uint256"
            },
            {
              "internalType": "uint256",
              "name": "maxHp",
              "type": "uint256"
            },
            {
              "internalType": "uint256",
              "name": "attackDamage",
              "type": "uint256"
            }
          ],
          "internalType": "struct MyEpicGame.CharacterAttributes[]",
          "name": "",
          "type": "tuple[]"
        }
      ],
      "stateMutability": "view",
      "type": "function"
    },
    {
      "inputs": [
        {
          "internalType": "address",
          "name": "owner",
          "type": "address"
        },
        {
          "internalType": "address",
          "name": "operator",
          "type": "address"
        }
      ],
      "name": "isApprovedForAll",
      "outputs": [
        {
          "internalType": "bool",
          "name": "",
          "type": "bool"
        }
      ],
      "stateMutability": "view",
      "type": "function"
    },
    {
      "inputs": [
        {
          "internalType": "uint256",
          "name": "_characterIndex",
          "type": "uint256"
        }
      ],
      "name": "mintCharacterNFT",
      "outputs": [],
      "stateMutability": "nonpayable",
      "type": "function"
    },
    {
      "inputs": [],
      "name": "name",
      "outputs": [
        {
          "internalType": "string",
          "name": "",
          "type": "string"
        }
      ],
      "stateMutability": "view",
      "type": "function"
    },
    {
      "inputs": [
        {
          "internalType": "uint256",
          "name": "",
          "type": "uint256"
        }
      ],
      "name": "nftHolderAttributes",
      "outputs": [
        {
          "internalType": "uint256",
          "name": "characterIndex",
          "type": "uint256"
        },
        {
          "internalType": "string",
          "name": "name",
          "type": "string"
        },
        {
          "internalType": "string",
          "name": "imageURI",
          "type": "string"
        },
        {
          "internalType": "uint256",
          "name": "hp",
          "type": "uint256"
        },
        {
          "internalType": "uint256",
          "name": "maxHp",
          "type": "uint256"
        },
        {
          "internalType": "uint256",
          "name": "attackDamage",
          "type": "uint256"
        }
      ],
      "stateMutability": "view",
      "type": "function"
    },
    {
      "inputs": [
        {
          "internalType": "address",
          "name": "",
          "type": "address"
        }
      ],
      "name": "nftHolders",
      "outputs": [
        {
          "internalType": "uint256",
          "name": "",
          "type": "uint256"
        }
      ],
      "stateMutability": "view",
      "type": "function"
    },
    {
      "inputs": [
        {
          "internalType": "uint256",
          "name": "tokenId",
          "type": "uint256"
        }
      ],
      "name": "ownerOf",
      "outputs": [
        {
          "internalType": "address",
          "name": "",
          "type": "address"
        }
      ],
      "stateMutability": "view",
      "type": "function"
    },
    {
      "inputs": [
        {
          "internalType": "address",
          "name": "from",
          "type": "address"
        },
        {
          "internalType": "address",
          "name": "to",
          "type": "address"
        },
        {
          "internalType": "uint256",
          "name": "tokenId",
          "type": "uint256"
        }
      ],
      "name": "safeTransferFrom",
      "outputs": [],
      "stateMutability": "nonpayable",
      "type": "function"
    },
    {
      "inputs": [
        {
          "internalType": "address",
          "name": "from",
          "type": "address"
        },
        {
          "internalType": "address",
          "name": "to",
          "type": "address"
        },
        {
          "internalType": "uint256",
          "name": "tokenId",
          "type": "uint256"
        },
        {
          "internalType": "bytes",
          "name": "_data",
          "type": "bytes"
        }
      ],
      "name": "safeTransferFrom",
      "outputs": [],
      "stateMutability": "nonpayable",
      "type": "function"
    },
    {
      "inputs": [
        {
          "internalType": "address",
          "name": "operator",
          "type": "address"
        },
        {
          "internalType": "bool",
          "name": "approved",
          "type": "bool"
        }
      ],
      "name": "setApprovalForAll",
      "outputs": [],
      "stateMutability": "nonpayable",
      "type": "function"
    },
    {
      "inputs": [
        {
          "internalType": "bytes4",
          "name": "interfaceId",
          "type": "bytes4"
        }
      ],
      "name": "supportsInterface",
      "outputs": [
        {
          "internalType": "bool",
          "name": "",
          "type": "bool"
        }
      ],
      "stateMutability": "view",
      "type": "function"
    },
    {
      "inputs": [],
      "name": "symbol",
      "outputs": [
        {
          "internalType": "string",
          "name": "",
          "type": "string"
        }
      ],
      "stateMutability": "view",
      "type": "function"
    },
    {
      "inputs": [
        {
          "internalType": "uint256",
          "name": "_tokenId",
          "type": "uint256"
        }
      ],
      "name": "tokenURI",
      "outputs": [
        {
          "internalType": "string",
          "name": "",
          "type": "string"
        }
      ],
      "stateMutability": "view",
      "type": "function"
    },
    {
      "inputs": [
        {
          "internalType": "address",
          "name": "from",
          "type": "address"
        },
        {
          "internalType": "address",
          "name": "to",
          "type": "address"
        },
        {
          "internalType": "uint256",
          "name": "tokenId",
          "type": "uint256"
        }
      ],
      "name": "transferFrom",
      "outputs": [],
      "stateMutability": "nonpayable",
      "type": "function"
    }
  ],
  "bytecode": "0x60806040523480156200001157600080fd5b506040516200582738038062005827833981810160405281019062000037919062000924565b6040518060400160405280600681526020017f4865726f657300000000000000000000000000000000000000000000000000008152506040518060400160405280600481526020017f4845524f000000000000000000000000000000000000000000000000000000008152508160009080519060200190620000bb9291906200068c565b508060019080519060200190620000d49291906200068c565b5050506040518060a0016040528085815260200184815260200183815260200183815260200182815250600860008201518160000190805190602001906200011e9291906200068c565b5060208201518160010190805190602001906200013d9291906200068c565b5060408201518160020155606082015181600301556080820151816004015590505060005b88518110156200057b5760076040518060c001604052808381526020018b8481518110620001b9577f4e487b7100000000000000000000000000000000000000000000000000000000600052603260045260246000fd5b602002602001015181526020018a848151811062000200577f4e487b7100000000000000000000000000000000000000000000000000000000600052603260045260246000fd5b6020026020010151815260200189848151811062000247577f4e487b7100000000000000000000000000000000000000000000000000000000600052603260045260246000fd5b602002602001015181526020018984815181106200028e577f4e487b7100000000000000000000000000000000000000000000000000000000600052603260045260246000fd5b60200260200101518152602001888481518110620002d5577f4e487b7100000000000000000000000000000000000000000000000000000000600052603260045260246000fd5b60200260200101518152509080600181540180825580915050600190039060005260206000209060060201600090919091909150600082015181600001556020820151816001019080519060200190620003319291906200068c565b506040820151816002019080519060200190620003509291906200068c565b50606082015181600301556080820151816004015560a082015181600501555050600060078281548110620003ae577f4e487b7100000000000000000000000000000000000000000000000000000000600052603260045260246000fd5b90600052602060002090600602016040518060c001604052908160008201548152602001600182018054620003e39062000ca7565b80601f0160208091040260200160405190810160405280929190818152602001828054620004119062000ca7565b8015620004625780601f10620004365761010080835404028352916020019162000462565b820191906000526020600020905b8154815290600101906020018083116200044457829003601f168201915b505050505081526020016002820180546200047d9062000ca7565b80601f0160208091040260200160405190810160405280929190818152602001828054620004ab9062000ca7565b8015620004fc5780601f10620004d057610100808354040283529160200191620004fc565b820191906000526020600020905b815481529060010190602001808311620004de57829003601f168201915b5050505050815260200160038201548152602001600482015481526020016005820154815250509050620005636040518060600160405280602581526020016200580260259139826020015183606001518460400151620005a160201b62001c6d1760201c565b5060018162000573919062000c0a565b905062000162565b506200059360066200064d60201b62001d0f1760201c565b505050505050505062000dcb565b6200064784848484604051602401620005be949392919062000acf565b6040516020818303038152906040527f8d142cdd000000000000000000000000000000000000000000000000000000007bffffffffffffffffffffffffffffffffffffffffffffffffffffffff19166020820180517bffffffffffffffffffffffffffffffffffffffffffffffffffffffff83818316178352505050506200066360201b60201c565b50505050565b6001816000016000828254019250508190555050565b60008151905060006a636f6e736f6c652e6c6f679050602083016000808483855afa5050505050565b8280546200069a9062000ca7565b90600052602060002090601f016020900481019282620006be57600085556200070a565b82601f10620006d957805160ff19168380011785556200070a565b828001600101855582156200070a579182015b8281111562000709578251825591602001919060010190620006ec565b5b5090506200071991906200071d565b5090565b5b80821115620007385760008160009055506001016200071e565b5090565b6000620007536200074d8462000b5a565b62000b31565b905080838252602082019050828560208602820111156200077357600080fd5b60005b85811015620007c257815167ffffffffffffffff8111156200079757600080fd5b808601620007a68982620008e0565b8552602085019450602084019350505060018101905062000776565b5050509392505050565b6000620007e3620007dd8462000b89565b62000b31565b905080838252602082019050828560208602820111156200080357600080fd5b60005b858110156200083757816200081c88826200090d565b84526020840193506020830192505060018101905062000806565b5050509392505050565b600062000858620008528462000bb8565b62000b31565b9050828152602081018484840111156200087157600080fd5b6200087e84828562000c71565b509392505050565b600082601f8301126200089857600080fd5b8151620008aa8482602086016200073c565b91505092915050565b600082601f830112620008c557600080fd5b8151620008d7848260208601620007cc565b91505092915050565b600082601f830112620008f257600080fd5b81516200090484826020860162000841565b91505092915050565b6000815190506200091e8162000db1565b92915050565b600080600080600080600080610100898b0312156200094257600080fd5b600089015167ffffffffffffffff8111156200095d57600080fd5b6200096b8b828c0162000886565b985050602089015167ffffffffffffffff8111156200098957600080fd5b620009978b828c0162000886565b975050604089015167ffffffffffffffff811115620009b557600080fd5b620009c38b828c01620008b3565b965050606089015167ffffffffffffffff811115620009e157600080fd5b620009ef8b828c01620008b3565b955050608089015167ffffffffffffffff81111562000a0d57600080fd5b62000a1b8b828c01620008e0565b94505060a089015167ffffffffffffffff81111562000a3957600080fd5b62000a478b828c01620008e0565b93505060c062000a5a8b828c016200090d565b92505060e062000a6d8b828c016200090d565b9150509295985092959890939650565b600062000a8a8262000bee565b62000a96818562000bf9565b935062000aa881856020860162000c71565b62000ab38162000da0565b840191505092915050565b62000ac98162000c67565b82525050565b6000608082019050818103600083015262000aeb818762000a7d565b9050818103602083015262000b01818662000a7d565b905062000b12604083018562000abe565b818103606083015262000b26818462000a7d565b905095945050505050565b600062000b3d62000b50565b905062000b4b828262000cdd565b919050565b6000604051905090565b600067ffffffffffffffff82111562000b785762000b7762000d71565b5b602082029050602081019050919050565b600067ffffffffffffffff82111562000ba75762000ba662000d71565b5b602082029050602081019050919050565b600067ffffffffffffffff82111562000bd65762000bd562000d71565b5b62000be18262000da0565b9050602081019050919050565b600081519050919050565b600082825260208201905092915050565b600062000c178262000c67565b915062000c248362000c67565b9250827fffffffffffffffffffffffffffffffffffffffffffffffffffffffffffffffff0382111562000c5c5762000c5b62000d13565b5b828201905092915050565b6000819050919050565b60005b8381101562000c9157808201518184015260208101905062000c74565b8381111562000ca1576000848401525b50505050565b6000600282049050600182168062000cc057607f821691505b6020821081141562000cd75762000cd662000d42565b5b50919050565b62000ce88262000da0565b810181811067ffffffffffffffff8211171562000d0a5762000d0962000d71565b5b80604052505050565b7f4e487b7100000000000000000000000000000000000000000000000000000000600052601160045260246000fd5b7f4e487b7100000000000000000000000000000000000000000000000000000000600052602260045260246000fd5b7f4e487b7100000000000000000000000000000000000000000000000000000000600052604160045260246000fd5b6000601f19601f8301169050919050565b62000dbc8162000c67565b811462000dc857600080fd5b50565b614a278062000ddb6000396000f3fe608060405234801561001057600080fd5b50600436106101375760003560e01c80637df124a1116100b8578063b88d4fde1161007c578063b88d4fde1461036b578063c87b56dd14610387578063c8cf27f4146103b7578063d4f24c5b146103d5578063e985e9c5146103df578063f8b81ef71461040f57610137565b80637df124a1146102aa57806395d89b41146102da57806398da4c95146102f8578063a22cb4651461032d578063a9c326791461034957610137565b806323b872dd116100ff57806323b872dd146101f457806342842e0e146102105780636352211e1461022c57806370a082311461025c57806374bce80a1461028c57610137565b806301ffc9a71461013c5780630665f9611461016c57806306fdde031461018a578063081812fc146101a8578063095ea7b3146101d8575b600080fd5b610156600480360381019061015191906130ac565b61042b565b6040516101639190613934565b60405180910390f35b61017461050d565b6040516101819190613ced565b60405180910390f35b610192610669565b60405161019f919061394f565b60405180910390f35b6101c260048036038101906101bd91906130fe565b6106fb565b6040516101cf9190613874565b60405180910390f35b6101f260048036038101906101ed9190613070565b610780565b005b61020e60048036038101906102099190612f6a565b610898565b005b61022a60048036038101906102259190612f6a565b6108f8565b005b610246600480360381019061024191906130fe565b610918565b6040516102539190613874565b60405180910390f35b61027660048036038101906102719190612f05565b6109ca565b6040516102839190613d31565b60405180910390f35b610294610a82565b6040516102a19190613912565b60405180910390f35b6102c460048036038101906102bf9190612f05565b610c2d565b6040516102d19190613d31565b60405180910390f35b6102e2610c45565b6040516102ef919061394f565b60405180910390f35b610312600480360381019061030d91906130fe565b610cd7565b60405161032496959493929190613d4c565b60405180910390f35b61034760048036038101906103429190613034565b610e23565b005b610351610e39565b604051610362959493929190613a1e565b60405180910390f35b61038560048036038101906103809190612fb9565b610f6d565b005b6103a1600480360381019061039c91906130fe565b610fcf565b6040516103ae919061394f565b60405180910390f35b6103bf6111f0565b6040516103cc9190613d0f565b60405180910390f35b6103dd6113c8565b005b6103f960048036038101906103f49190612f2e565b611753565b6040516104069190613934565b60405180910390f35b610429600480360381019061042491906130fe565b6117e7565b005b60007f80ac58cd000000000000000000000000000000000000000000000000000000007bffffffffffffffffffffffffffffffffffffffffffffffffffffffff1916827bffffffffffffffffffffffffffffffffffffffffffffffffffffffff191614806104f657507f5b5e139f000000000000000000000000000000000000000000000000000000007bffffffffffffffffffffffffffffffffffffffffffffffffffffffff1916827bffffffffffffffffffffffffffffffffffffffffffffffffffffffff1916145b80610506575061050582611d25565b5b9050919050565b610515612d2c565b60086040518060a001604052908160008201805461053290614092565b80601f016020809104026020016040519081016040528092919081815260200182805461055e90614092565b80156105ab5780601f10610580576101008083540402835291602001916105ab565b820191906000526020600020905b81548152906001019060200180831161058e57829003601f168201915b505050505081526020016001820180546105c490614092565b80601f01602080910402602001604051908101604052809291908181526020018280546105f090614092565b801561063d5780601f106106125761010080835404028352916020019161063d565b820191906000526020600020905b81548152906001019060200180831161062057829003601f168201915b505050505081526020016002820154815260200160038201548152602001600482015481525050905090565b60606000805461067890614092565b80601f01602080910402602001604051908101604052809291908181526020018280546106a490614092565b80156106f15780601f106106c6576101008083540402835291602001916106f1565b820191906000526020600020905b8154815290600101906020018083116106d457829003601f168201915b5050505050905090565b600061070682611d8f565b610745576040517f08c379a000000000000000000000000000000000000000000000000000000000815260040161073c90613c6d565b60405180910390fd5b6004600083815260200190815260200160002060009054906101000a900473ffffffffffffffffffffffffffffffffffffffff169050919050565b600061078b82610918565b90508073ffffffffffffffffffffffffffffffffffffffff168373ffffffffffffffffffffffffffffffffffffffff1614156107fc576040517f08c379a00000000000000000000000000000000000000000000000000000000081526004016107f390613c8d565b60405180910390fd5b8073ffffffffffffffffffffffffffffffffffffffff1661081b611dfb565b73ffffffffffffffffffffffffffffffffffffffff16148061084a575061084981610844611dfb565b611753565b5b610889576040517f08c379a000000000000000000000000000000000000000000000000000000000815260040161088090613bcd565b60405180910390fd5b6108938383611e03565b505050565b6108a96108a3611dfb565b82611ebc565b6108e8576040517f08c379a00000000000000000000000000000000000000000000000000000000081526004016108df90613ccd565b60405180910390fd5b6108f3838383611f9a565b505050565b61091383838360405180602001604052806000815250610f6d565b505050565b6000806002600084815260200190815260200160002060009054906101000a900473ffffffffffffffffffffffffffffffffffffffff169050600073ffffffffffffffffffffffffffffffffffffffff168173ffffffffffffffffffffffffffffffffffffffff1614156109c1576040517f08c379a00000000000000000000000000000000000000000000000000000000081526004016109b890613c0d565b60405180910390fd5b80915050919050565b60008073ffffffffffffffffffffffffffffffffffffffff168273ffffffffffffffffffffffffffffffffffffffff161415610a3b576040517f08c379a0000000000000000000000000000000000000000000000000000000008152600401610a3290613bed565b60405180910390fd5b600360008373ffffffffffffffffffffffffffffffffffffffff1673ffffffffffffffffffffffffffffffffffffffff168152602001908152602001600020549050919050565b60606007805480602002602001604051908101604052809291908181526020016000905b82821015610c2457838290600052602060002090600602016040518060c001604052908160008201548152602001600182018054610ae390614092565b80601f0160208091040260200160405190810160405280929190818152602001828054610b0f90614092565b8015610b5c5780601f10610b3157610100808354040283529160200191610b5c565b820191906000526020600020905b815481529060010190602001808311610b3f57829003601f168201915b50505050508152602001600282018054610b7590614092565b80601f0160208091040260200160405190810160405280929190818152602001828054610ba190614092565b8015610bee5780601f10610bc357610100808354040283529160200191610bee565b820191906000526020600020905b815481529060010190602001808311610bd157829003601f168201915b50505050508152602001600382015481526020016004820154815260200160058201548152505081526020019060010190610aa6565b50505050905090565b600e6020528060005260406000206000915090505481565b606060018054610c5490614092565b80601f0160208091040260200160405190810160405280929190818152602001828054610c8090614092565b8015610ccd5780601f10610ca257610100808354040283529160200191610ccd565b820191906000526020600020905b815481529060010190602001808311610cb057829003601f168201915b5050505050905090565b600d602052806000526040600020600091509050806000015490806001018054610d0090614092565b80601f0160208091040260200160405190810160405280929190818152602001828054610d2c90614092565b8015610d795780601f10610d4e57610100808354040283529160200191610d79565b820191906000526020600020905b815481529060010190602001808311610d5c57829003601f168201915b505050505090806002018054610d8e90614092565b80601f0160208091040260200160405190810160405280929190818152602001828054610dba90614092565b8015610e075780601f10610ddc57610100808354040283529160200191610e07565b820191906000526020600020905b815481529060010190602001808311610dea57829003601f168201915b5050505050908060030154908060040154908060050154905086565b610e35610e2e611dfb565b8383612201565b5050565b6008806000018054610e4a90614092565b80601f0160208091040260200160405190810160405280929190818152602001828054610e7690614092565b8015610ec35780601f10610e9857610100808354040283529160200191610ec3565b820191906000526020600020905b815481529060010190602001808311610ea657829003601f168201915b505050505090806001018054610ed890614092565b80601f0160208091040260200160405190810160405280929190818152602001828054610f0490614092565b8015610f515780601f10610f2657610100808354040283529160200191610f51565b820191906000526020600020905b815481529060010190602001808311610f3457829003601f168201915b5050505050908060020154908060030154908060040154905085565b610f7e610f78611dfb565b83611ebc565b610fbd576040517f08c379a0000000000000000000000000000000000000000000000000000000008152600401610fb490613ccd565b60405180910390fd5b610fc98484848461236e565b50505050565b60606000600d60008481526020019081526020016000206040518060c00160405290816000820154815260200160018201805461100b90614092565b80601f016020809104026020016040519081016040528092919081815260200182805461103790614092565b80156110845780601f1061105957610100808354040283529160200191611084565b820191906000526020600020905b81548152906001019060200180831161106757829003601f168201915b5050505050815260200160028201805461109d90614092565b80601f01602080910402602001604051908101604052809291908181526020018280546110c990614092565b80156111165780601f106110eb57610100808354040283529160200191611116565b820191906000526020600020905b8154815290600101906020018083116110f957829003601f168201915b5050505050815260200160038201548152602001600482015481526020016005820154815250509050600061114e82606001516123ca565b9050600061115f83608001516123ca565b905060006111708460a001516123ca565b9050600061117d876123ca565b905060006111bb86602001518388604001518888886040516020016111a7969594939291906137ad565b604051602081830303815290604052612577565b90506000816040516020016111d09190613852565b604051602081830303815290604052905080975050505050505050919050565b6111f8612d5b565b6000600e60003373ffffffffffffffffffffffffffffffffffffffff1673ffffffffffffffffffffffffffffffffffffffff16815260200190815260200160002054905060008111156113b757600d60008281526020019081526020016000206040518060c00160405290816000820154815260200160018201805461127d90614092565b80601f01602080910402602001604051908101604052809291908181526020018280546112a990614092565b80156112f65780601f106112cb576101008083540402835291602001916112f6565b820191906000526020600020905b8154815290600101906020018083116112d957829003601f168201915b5050505050815260200160028201805461130f90614092565b80601f016020809104026020016040519081016040528092919081815260200182805461133b90614092565b80156113885780601f1061135d57610100808354040283529160200191611388565b820191906000526020600020905b81548152906001019060200180831161136b57829003601f168201915b5050505050815260200160038201548152602001600482015481526020016005820154815250509150506113c5565b6113bf612d5b565b80925050505b90565b6000600e60003373ffffffffffffffffffffffffffffffffffffffff1673ffffffffffffffffffffffffffffffffffffffff1681526020019081526020016000205490506000600d600083815260200190815260200160002090506114db6040518060600160405280603c81526020016149b6603c913982600101805461144e90614092565b80601f016020809104026020016040519081016040528092919081815260200182805461147a90614092565b80156114c75780601f1061149c576101008083540402835291602001916114c7565b820191906000526020600020905b8154815290600101906020018083116114aa57829003601f168201915b505050505083600301548460050154612701565b6115b36040518060400160405280601b81526020017f426f73732025732068617320257320485020616e6420257320414400000000008152506008600001805461152490614092565b80601f016020809104026020016040519081016040528092919081815260200182805461155090614092565b801561159d5780601f106115725761010080835404028352916020019161159d565b820191906000526020600020905b81548152906001019060200180831161158057829003601f168201915b5050505050600860020154600860040154612701565b60008160030154116115fa576040517f08c379a00000000000000000000000000000000000000000000000000000000081526004016115f190613c2d565b60405180910390fd5b600060086002015411611642576040517f08c379a000000000000000000000000000000000000000000000000000000000815260040161163990613b2d565b60405180910390fd5b80600501546008600201541015611663576000600860020181905550611682565b80600501546008600201546116789190613fa8565b6008600201819055505b600860040154816003015410156116a257600081600301819055506116c0565b60086004015481600301546116b79190613fa8565b81600301819055505b7f838ab28464562786a6c4ab2311964b82fa60bd9b14aa7e856af1f3f18d41a41481600301546008600201546040516116fa929190613dbb565b60405180910390a1611729604051806060016040528060258152602001614929602591396008600201546127a3565b61174f60405180606001604052806028815260200161498e6028913982600301546127a3565b5050565b6000600560008473ffffffffffffffffffffffffffffffffffffffff1673ffffffffffffffffffffffffffffffffffffffff16815260200190815260200160002060008373ffffffffffffffffffffffffffffffffffffffff1673ffffffffffffffffffffffffffffffffffffffff16815260200190815260200160002060009054906101000a900460ff16905092915050565b600780549050811061182e576040517f08c379a000000000000000000000000000000000000000000000000000000000815260040161182590613cad565b60405180910390fd5b600061183a600661283f565b9050611846338261284d565b7f4bc303fd457a97b4691b9af582ce71868a3d258638c8d4f8c60988a0f0bfb8cd338284604051611879939291906138db565b60405180910390a16040518060c00160405280600784815481106118c6577f4e487b7100000000000000000000000000000000000000000000000000000000600052603260045260246000fd5b906000526020600020906006020160000154815260200160078481548110611917577f4e487b7100000000000000000000000000000000000000000000000000000000600052603260045260246000fd5b9060005260206000209060060201600101805461193390614092565b80601f016020809104026020016040519081016040528092919081815260200182805461195f90614092565b80156119ac5780601f10611981576101008083540402835291602001916119ac565b820191906000526020600020905b81548152906001019060200180831161198f57829003601f168201915b50505050508152602001600784815481106119f0577f4e487b7100000000000000000000000000000000000000000000000000000000600052603260045260246000fd5b90600052602060002090600602016002018054611a0c90614092565b80601f0160208091040260200160405190810160405280929190818152602001828054611a3890614092565b8015611a855780601f10611a5a57610100808354040283529160200191611a85565b820191906000526020600020905b815481529060010190602001808311611a6857829003601f168201915b5050505050815260200160078481548110611ac9577f4e487b7100000000000000000000000000000000000000000000000000000000600052603260045260246000fd5b906000526020600020906006020160030154815260200160078481548110611b1a577f4e487b7100000000000000000000000000000000000000000000000000000000600052603260045260246000fd5b906000526020600020906006020160030154815260200160078481548110611b6b577f4e487b7100000000000000000000000000000000000000000000000000000000600052603260045260246000fd5b906000526020600020906006020160050154815250600d6000838152602001908152602001600020600082015181600001556020820151816001019080519060200190611bb9929190612d91565b506040820151816002019080519060200190611bd6929190612d91565b50606082015181600301556080820151816004015560a08201518160050155905050611c1b6040518060600160405280603281526020016148f760329139828461286b565b80600e60003373ffffffffffffffffffffffffffffffffffffffff1673ffffffffffffffffffffffffffffffffffffffff16815260200190815260200160002081905550611c696006611d0f565b5050565b611d0984848484604051602401611c879493929190613971565b6040516020818303038152906040527f8d142cdd000000000000000000000000000000000000000000000000000000007bffffffffffffffffffffffffffffffffffffffffffffffffffffffff19166020820180517bffffffffffffffffffffffffffffffffffffffffffffffffffffffff838183161783525050505061290a565b50505050565b6001816000016000828254019250508190555050565b60007f01ffc9a7000000000000000000000000000000000000000000000000000000007bffffffffffffffffffffffffffffffffffffffffffffffffffffffff1916827bffffffffffffffffffffffffffffffffffffffffffffffffffffffff1916149050919050565b60008073ffffffffffffffffffffffffffffffffffffffff166002600084815260200190815260200160002060009054906101000a900473ffffffffffffffffffffffffffffffffffffffff1673ffffffffffffffffffffffffffffffffffffffff1614159050919050565b600033905090565b816004600083815260200190815260200160002060006101000a81548173ffffffffffffffffffffffffffffffffffffffff021916908373ffffffffffffffffffffffffffffffffffffffff160217905550808273ffffffffffffffffffffffffffffffffffffffff16611e7683610918565b73ffffffffffffffffffffffffffffffffffffffff167f8c5be1e5ebec7d5bd14f71427d1e84f3dd0314c0f7b2291e5b200ac8c7c3b92560405160405180910390a45050565b6000611ec782611d8f565b611f06576040517f08c379a0000000000000000000000000000000000000000000000000000000008152600401611efd90613bad565b60405180910390fd5b6000611f1183610918565b90508073ffffffffffffffffffffffffffffffffffffffff168473ffffffffffffffffffffffffffffffffffffffff161480611f8057508373ffffffffffffffffffffffffffffffffffffffff16611f68846106fb565b73ffffffffffffffffffffffffffffffffffffffff16145b80611f915750611f908185611753565b5b91505092915050565b8273ffffffffffffffffffffffffffffffffffffffff16611fba82610918565b73ffffffffffffffffffffffffffffffffffffffff1614612010576040517f08c379a000000000000000000000000000000000000000000000000000000000815260040161200790613b0d565b60405180910390fd5b600073ffffffffffffffffffffffffffffffffffffffff168273ffffffffffffffffffffffffffffffffffffffff161415612080576040517f08c379a000000000000000000000000000000000000000000000000000000000815260040161207790613b6d565b60405180910390fd5b61208b838383612933565b612096600082611e03565b6001600360008573ffffffffffffffffffffffffffffffffffffffff1673ffffffffffffffffffffffffffffffffffffffff16815260200190815260200160002060008282546120e69190613fa8565b925050819055506001600360008473ffffffffffffffffffffffffffffffffffffffff1673ffffffffffffffffffffffffffffffffffffffff168152602001908152602001600020600082825461213d9190613ec7565b92505081905550816002600083815260200190815260200160002060006101000a81548173ffffffffffffffffffffffffffffffffffffffff021916908373ffffffffffffffffffffffffffffffffffffffff160217905550808273ffffffffffffffffffffffffffffffffffffffff168473ffffffffffffffffffffffffffffffffffffffff167fddf252ad1be2c89b69c2b068fc378daa952ba7f163c4a11628f55a4df523b3ef60405160405180910390a46121fc838383612938565b505050565b8173ffffffffffffffffffffffffffffffffffffffff168373ffffffffffffffffffffffffffffffffffffffff161415612270576040517f08c379a000000000000000000000000000000000000000000000000000000000815260040161226790613b8d565b60405180910390fd5b80600560008573ffffffffffffffffffffffffffffffffffffffff1673ffffffffffffffffffffffffffffffffffffffff16815260200190815260200160002060008473ffffffffffffffffffffffffffffffffffffffff1673ffffffffffffffffffffffffffffffffffffffff16815260200190815260200160002060006101000a81548160ff0219169083151502179055508173ffffffffffffffffffffffffffffffffffffffff168373ffffffffffffffffffffffffffffffffffffffff167f17307eab39ab6107e8899845ad3d59bd9653f200f220920489ca2b5937696c31836040516123619190613934565b60405180910390a3505050565b612379848484611f9a565b6123858484848461293d565b6123c4576040517f08c379a00000000000000000000000000000000000000000000000000000000081526004016123bb90613aed565b60405180910390fd5b50505050565b60606000821415612412576040518060400160405280600181526020017f30000000000000000000000000000000000000000000000000000000000000008152509050612572565b600082905060005b6000821461244457808061242d906140f5565b915050600a8261243d9190613f1d565b915061241a565b60008167ffffffffffffffff811115612486577f4e487b7100000000000000000000000000000000000000000000000000000000600052604160045260246000fd5b6040519080825280601f01601f1916602001820160405280156124b85781602001600182028036833780820191505090505b5090505b6000851461256b576001826124d19190613fa8565b9150600a856124e0919061413e565b60306124ec9190613ec7565b60f81b818381518110612528577f4e487b7100000000000000000000000000000000000000000000000000000000600052603260045260246000fd5b60200101907effffffffffffffffffffffffffffffffffffffffffffffffffffffffffffff1916908160001a905350600a856125649190613f1d565b94506124bc565b8093505050505b919050565b606060008251141561259a576040518060200160405280600081525090506126fc565b600060405180606001604052806040815260200161494e60409139905060006003600285516125c99190613ec7565b6125d39190613f1d565b60046125df9190613f4e565b67ffffffffffffffff81111561261e577f4e487b7100000000000000000000000000000000000000000000000000000000600052604160045260246000fd5b6040519080825280601f01601f1916602001820160405280156126505781602001600182028036833780820191505090505b509050600182016020820185865187015b808210156126bc576003820191508151603f8160121c168501518453600184019350603f81600c1c168501518453600184019350603f8160061c168501518453600184019350603f8116850151845360018401935050612661565b50506003865106600181146126d857600281146126eb576126f3565b603d6001830353603d60028303536126f3565b603d60018303535b50505080925050505b919050565b61279d8484848460405160240161271b94939291906139cb565b6040516020818303038152906040527fd5cf17d0000000000000000000000000000000000000000000000000000000007bffffffffffffffffffffffffffffffffffffffffffffffffffffffff19166020820180517bffffffffffffffffffffffffffffffffffffffffffffffffffffffff838183161783525050505061290a565b50505050565b61283b82826040516024016127b9929190613a7f565b6040516020818303038152906040527f9710a9d0000000000000000000000000000000000000000000000000000000007bffffffffffffffffffffffffffffffffffffffffffffffffffffffff19166020820180517bffffffffffffffffffffffffffffffffffffffffffffffffffffffff838183161783525050505061290a565b5050565b600081600001549050919050565b612867828260405180602001604052806000815250612ad4565b5050565b61290583838360405160240161288393929190613aaf565b6040516020818303038152906040527f969cdd03000000000000000000000000000000000000000000000000000000007bffffffffffffffffffffffffffffffffffffffffffffffffffffffff19166020820180517bffffffffffffffffffffffffffffffffffffffffffffffffffffffff838183161783525050505061290a565b505050565b60008151905060006a636f6e736f6c652e6c6f679050602083016000808483855afa5050505050565b505050565b505050565b600061295e8473ffffffffffffffffffffffffffffffffffffffff16612b2f565b15612ac7578373ffffffffffffffffffffffffffffffffffffffff1663150b7a02612987611dfb565b8786866040518563ffffffff1660e01b81526004016129a9949392919061388f565b602060405180830381600087803b1580156129c357600080fd5b505af19250505080156129f457506040513d601f19601f820116820180604052508101906129f191906130d5565b60015b612a77573d8060008114612a24576040519150601f19603f3d011682016040523d82523d6000602084013e612a29565b606091505b50600081511415612a6f576040517f08c379a0000000000000000000000000000000000000000000000000000000008152600401612a6690613aed565b60405180910390fd5b805181602001fd5b63150b7a0260e01b7bffffffffffffffffffffffffffffffffffffffffffffffffffffffff1916817bffffffffffffffffffffffffffffffffffffffffffffffffffffffff191614915050612acc565b600190505b949350505050565b612ade8383612b52565b612aeb600084848461293d565b612b2a576040517f08c379a0000000000000000000000000000000000000000000000000000000008152600401612b2190613aed565b60405180910390fd5b505050565b6000808273ffffffffffffffffffffffffffffffffffffffff163b119050919050565b600073ffffffffffffffffffffffffffffffffffffffff168273ffffffffffffffffffffffffffffffffffffffff161415612bc2576040517f08c379a0000000000000000000000000000000000000000000000000000000008152600401612bb990613c4d565b60405180910390fd5b612bcb81611d8f565b15612c0b576040517f08c379a0000000000000000000000000000000000000000000000000000000008152600401612c0290613b4d565b60405180910390fd5b612c1760008383612933565b6001600360008473ffffffffffffffffffffffffffffffffffffffff1673ffffffffffffffffffffffffffffffffffffffff1681526020019081526020016000206000828254612c679190613ec7565b92505081905550816002600083815260200190815260200160002060006101000a81548173ffffffffffffffffffffffffffffffffffffffff021916908373ffffffffffffffffffffffffffffffffffffffff160217905550808273ffffffffffffffffffffffffffffffffffffffff16600073ffffffffffffffffffffffffffffffffffffffff167fddf252ad1be2c89b69c2b068fc378daa952ba7f163c4a11628f55a4df523b3ef60405160405180910390a4612d2860008383612938565b5050565b6040518060a0016040528060608152602001606081526020016000815260200160008152602001600081525090565b6040518060c001604052806000815260200160608152602001606081526020016000815260200160008152602001600081525090565b828054612d9d90614092565b90600052602060002090601f016020900481019282612dbf5760008555612e06565b82601f10612dd857805160ff1916838001178555612e06565b82800160010185558215612e06579182015b82811115612e05578251825591602001919060010190612dea565b5b509050612e139190612e17565b5090565b5b80821115612e30576000816000905550600101612e18565b5090565b6000612e47612e4284613e09565b613de4565b905082815260208101848484011115612e5f57600080fd5b612e6a848285614050565b509392505050565b600081359050612e818161489a565b92915050565b600081359050612e96816148b1565b92915050565b600081359050612eab816148c8565b92915050565b600081519050612ec0816148c8565b92915050565b600082601f830112612ed757600080fd5b8135612ee7848260208601612e34565b91505092915050565b600081359050612eff816148df565b92915050565b600060208284031215612f1757600080fd5b6000612f2584828501612e72565b91505092915050565b60008060408385031215612f4157600080fd5b6000612f4f85828601612e72565b9250506020612f6085828601612e72565b9150509250929050565b600080600060608486031215612f7f57600080fd5b6000612f8d86828701612e72565b9350506020612f9e86828701612e72565b9250506040612faf86828701612ef0565b9150509250925092565b60008060008060808587031215612fcf57600080fd5b6000612fdd87828801612e72565b9450506020612fee87828801612e72565b9350506040612fff87828801612ef0565b925050606085013567ffffffffffffffff81111561301c57600080fd5b61302887828801612ec6565b91505092959194509250565b6000806040838503121561304757600080fd5b600061305585828601612e72565b925050602061306685828601612e87565b9150509250929050565b6000806040838503121561308357600080fd5b600061309185828601612e72565b92505060206130a285828601612ef0565b9150509250929050565b6000602082840312156130be57600080fd5b60006130cc84828501612e9c565b91505092915050565b6000602082840312156130e757600080fd5b60006130f584828501612eb1565b91505092915050565b60006020828403121561311057600080fd5b600061311e84828501612ef0565b91505092915050565b6000613133838361366f565b905092915050565b61314481613fdc565b82525050565b600061315582613e4a565b61315f8185613e78565b93508360208202850161317185613e3a565b8060005b858110156131ad578484038952815161318e8582613127565b945061319983613e6b565b925060208a01995050600181019050613175565b50829750879550505050505092915050565b6131c881613fee565b82525050565b60006131d982613e55565b6131e38185613e89565b93506131f381856020860161405f565b6131fc8161422b565b840191505092915050565b600061321282613e60565b61321c8185613e9a565b935061322c81856020860161405f565b6132358161422b565b840191505092915050565b600061324b82613e60565b6132558185613eab565b935061326581856020860161405f565b61326e8161422b565b840191505092915050565b600061328482613e60565b61328e8185613ebc565b935061329e81856020860161405f565b80840191505092915050565b60006132b7600b83613ebc565b91506132c28261423c565b600b82019050919050565b60006132da603283613eab565b91506132e582614265565b604082019050919050565b60006132fd602583613eab565b9150613308826142b4565b604082019050919050565b6000613320602883613eab565b915061332b82614303565b604082019050919050565b6000613343601c83613eab565b915061334e82614352565b602082019050919050565b6000613366600e83613ebc565b91506133718261437b565b600e82019050919050565b6000613389602483613eab565b9150613394826143a4565b604082019050919050565b60006133ac601983613eab565b91506133b7826143f3565b602082019050919050565b60006133cf602c83613eab565b91506133da8261441c565b604082019050919050565b60006133f2603883613eab565b91506133fd8261446b565b604082019050919050565b6000613415602a83613eab565b9150613420826144ba565b604082019050919050565b6000613438602983613eab565b915061344382614509565b604082019050919050565b600061345b606283613ebc565b915061346682614558565b606282019050919050565b600061347e602d83613eab565b9150613489826145f3565b604082019050919050565b60006134a1600483613ebc565b91506134ac82614642565b600482019050919050565b60006134c4602083613eab565b91506134cf8261466b565b602082019050919050565b60006134e7602c83613eab565b91506134f282614694565b604082019050919050565b600061350a600a83613ebc565b9150613515826146e3565b600a82019050919050565b600061352d602183613eab565b91506135388261470c565b604082019050919050565b6000613550601a83613eab565b915061355b8261475b565b602082019050919050565b6000613573601d83613ebc565b915061357e82614784565b601d82019050919050565b6000613596603183613eab565b91506135a1826147ad565b604082019050919050565b60006135b9603d83613ebc565b91506135c4826147fc565b603d82019050919050565b60006135dc602d83613ebc565b91506135e78261484b565b602d82019050919050565b600060a083016000830151848203600086015261360f8282613207565b915050602083015184820360208601526136298282613207565b915050604083015161363e604086018261378f565b506060830151613651606086018261378f565b506080830151613664608086018261378f565b508091505092915050565b600060c083016000830151613687600086018261378f565b506020830151848203602086015261369f8282613207565b915050604083015184820360408601526136b98282613207565b91505060608301516136ce606086018261378f565b5060808301516136e1608086018261378f565b5060a08301516136f460a086018261378f565b508091505092915050565b600060c083016000830151613717600086018261378f565b506020830151848203602086015261372f8282613207565b915050604083015184820360408601526137498282613207565b915050606083015161375e606086018261378f565b506080830151613771608086018261378f565b5060a083015161378460a086018261378f565b508091505092915050565b61379881614046565b82525050565b6137a781614046565b82525050565b60006137b8826134fd565b91506137c48289613279565b91506137cf826132aa565b91506137db8288613279565b91506137e68261344e565b91506137f28287613279565b91506137fd826135ac565b91506138098286613279565b915061381482613359565b91506138208285613279565b915061382b826135cf565b91506138378284613279565b915061384282613494565b9150819050979650505050505050565b600061385d82613566565b91506138698284613279565b915081905092915050565b6000602082019050613889600083018461313b565b92915050565b60006080820190506138a4600083018761313b565b6138b1602083018661313b565b6138be604083018561379e565b81810360608301526138d081846131ce565b905095945050505050565b60006060820190506138f0600083018661313b565b6138fd602083018561379e565b61390a604083018461379e565b949350505050565b6000602082019050818103600083015261392c818461314a565b905092915050565b600060208201905061394960008301846131bf565b92915050565b600060208201905081810360008301526139698184613240565b905092915050565b6000608082019050818103600083015261398b8187613240565b9050818103602083015261399f8186613240565b90506139ae604083018561379e565b81810360608301526139c08184613240565b905095945050505050565b600060808201905081810360008301526139e58187613240565b905081810360208301526139f98186613240565b9050613a08604083018561379e565b613a15606083018461379e565b95945050505050565b600060a0820190508181036000830152613a388188613240565b90508181036020830152613a4c8187613240565b9050613a5b604083018661379e565b613a68606083018561379e565b613a75608083018461379e565b9695505050505050565b60006040820190508181036000830152613a998185613240565b9050613aa8602083018461379e565b9392505050565b60006060820190508181036000830152613ac98186613240565b9050613ad8602083018561379e565b613ae5604083018461379e565b949350505050565b60006020820190508181036000830152613b06816132cd565b9050919050565b60006020820190508181036000830152613b26816132f0565b9050919050565b60006020820190508181036000830152613b4681613313565b9050919050565b60006020820190508181036000830152613b6681613336565b9050919050565b60006020820190508181036000830152613b868161337c565b9050919050565b60006020820190508181036000830152613ba68161339f565b9050919050565b60006020820190508181036000830152613bc6816133c2565b9050919050565b60006020820190508181036000830152613be6816133e5565b9050919050565b60006020820190508181036000830152613c0681613408565b9050919050565b60006020820190508181036000830152613c268161342b565b9050919050565b60006020820190508181036000830152613c4681613471565b9050919050565b60006020820190508181036000830152613c66816134b7565b9050919050565b60006020820190508181036000830152613c86816134da565b9050919050565b60006020820190508181036000830152613ca681613520565b9050919050565b60006020820190508181036000830152613cc681613543565b9050919050565b60006020820190508181036000830152613ce681613589565b9050919050565b60006020820190508181036000830152613d0781846135f2565b905092915050565b60006020820190508181036000830152613d2981846136ff565b905092915050565b6000602082019050613d46600083018461379e565b92915050565b600060c082019050613d61600083018961379e565b8181036020830152613d738188613240565b90508181036040830152613d878187613240565b9050613d96606083018661379e565b613da3608083018561379e565b613db060a083018461379e565b979650505050505050565b6000604082019050613dd0600083018561379e565b613ddd602083018461379e565b9392505050565b6000613dee613dff565b9050613dfa82826140c4565b919050565b6000604051905090565b600067ffffffffffffffff821115613e2457613e236141fc565b5b613e2d8261422b565b9050602081019050919050565b6000819050602082019050919050565b600081519050919050565b600081519050919050565b600081519050919050565b6000602082019050919050565b600082825260208201905092915050565b600082825260208201905092915050565b600082825260208201905092915050565b600082825260208201905092915050565b600081905092915050565b6000613ed282614046565b9150613edd83614046565b9250827fffffffffffffffffffffffffffffffffffffffffffffffffffffffffffffffff03821115613f1257613f1161416f565b5b828201905092915050565b6000613f2882614046565b9150613f3383614046565b925082613f4357613f4261419e565b5b828204905092915050565b6000613f5982614046565b9150613f6483614046565b9250817fffffffffffffffffffffffffffffffffffffffffffffffffffffffffffffffff0483118215151615613f9d57613f9c61416f565b5b828202905092915050565b6000613fb382614046565b9150613fbe83614046565b925082821015613fd157613fd061416f565b5b828203905092915050565b6000613fe782614026565b9050919050565b60008115159050919050565b60007fffffffff0000000000000000000000000000000000000000000000000000000082169050919050565b600073ffffffffffffffffffffffffffffffffffffffff82169050919050565b6000819050919050565b82818337600083830152505050565b60005b8381101561407d578082015181840152602081019050614062565b8381111561408c576000848401525b50505050565b600060028204905060018216806140aa57607f821691505b602082108114156140be576140bd6141cd565b5b50919050565b6140cd8261422b565b810181811067ffffffffffffffff821117156140ec576140eb6141fc565b5b80604052505050565b600061410082614046565b91507fffffffffffffffffffffffffffffffffffffffffffffffffffffffffffffffff8214156141335761413261416f565b5b600182019050919050565b600061414982614046565b915061415483614046565b9250826141645761416361419e565b5b828206905092915050565b7f4e487b7100000000000000000000000000000000000000000000000000000000600052601160045260246000fd5b7f4e487b7100000000000000000000000000000000000000000000000000000000600052601260045260246000fd5b7f4e487b7100000000000000000000000000000000000000000000000000000000600052602260045260246000fd5b7f4e487b7100000000000000000000000000000000000000000000000000000000600052604160045260246000fd5b6000601f19601f8301169050919050565b7f202d2d204e465420233a20000000000000000000000000000000000000000000600082015250565b7f4552433732313a207472616e7366657220746f206e6f6e20455243373231526560008201527f63656976657220696d706c656d656e7465720000000000000000000000000000602082015250565b7f4552433732313a207472616e736665722066726f6d20696e636f72726563742060008201527f6f776e6572000000000000000000000000000000000000000000000000000000602082015250565b7f4572726f723a20626f7373206d757374206861766520485020746f206174746160008201527f636b20626f73732e000000000000000000000000000000000000000000000000602082015250565b7f4552433732313a20746f6b656e20616c7265616479206d696e74656400000000600082015250565b7f2c20226d61785f76616c7565223a000000000000000000000000000000000000600082015250565b7f4552433732313a207472616e7366657220746f20746865207a65726f2061646460008201527f7265737300000000000000000000000000000000000000000000000000000000602082015250565b7f4552433732313a20617070726f766520746f2063616c6c657200000000000000600082015250565b7f4552433732313a206f70657261746f7220717565727920666f72206e6f6e657860008201527f697374656e7420746f6b656e0000000000000000000000000000000000000000602082015250565b7f4552433732313a20617070726f76652063616c6c6572206973206e6f74206f7760008201527f6e6572206e6f7220617070726f76656420666f7220616c6c0000000000000000602082015250565b7f4552433732313a2062616c616e636520717565727920666f7220746865207a6560008201527f726f206164647265737300000000000000000000000000000000000000000000602082015250565b7f4552433732313a206f776e657220717565727920666f72206e6f6e657869737460008201527f656e7420746f6b656e0000000000000000000000000000000000000000000000602082015250565b7f222c20226465736372697074696f6e223a20225468697320697320616e204e4660008201527f542074686174206c6574732070656f706c6520706c617920696e20746865206760208201527f616d65204d657461766572736520536c6179657221222c2022696d616765223a60408201527f2022000000000000000000000000000000000000000000000000000000000000606082015250565b7f4572726f723a20636861726163746572206d757374206861766520485020746f60008201527f2061747461636b20626f73732e00000000000000000000000000000000000000602082015250565b7f7d205d7d00000000000000000000000000000000000000000000000000000000600082015250565b7f4552433732313a206d696e7420746f20746865207a65726f2061646472657373600082015250565b7f4552433732313a20617070726f76656420717565727920666f72206e6f6e657860008201527f697374656e7420746f6b656e0000000000000000000000000000000000000000602082015250565b7f7b226e616d65223a202200000000000000000000000000000000000000000000600082015250565b7f4552433732313a20617070726f76616c20746f2063757272656e74206f776e6560008201527f7200000000000000000000000000000000000000000000000000000000000000602082015250565b7f5468657265206973206e6f207375636820636861726163746572000000000000600082015250565b7f646174613a6170706c69636174696f6e2f6a736f6e3b6261736536342c000000600082015250565b7f4552433732313a207472616e736665722063616c6c6572206973206e6f74206f60008201527f776e6572206e6f7220617070726f766564000000000000000000000000000000602082015250565b7f222c202261747472696275746573223a205b207b202274726169745f7479706560008201527f223a20224865616c746820506f696e7473222c202276616c7565223a20000000602082015250565b7f7d2c207b202274726169745f74797065223a202241747461636b2044616d616760008201527f65222c202276616c7565223a2000000000000000000000000000000000000000602082015250565b6148a381613fdc565b81146148ae57600080fd5b50565b6148ba81613fee565b81146148c557600080fd5b50565b6148d181613ffa565b81146148dc57600080fd5b50565b6148e881614046565b81146148f357600080fd5b5056fe4d696e746564206e6577206e667420746f6b656e2049643a20257320616e642063686172616374657220696e646578202573506c617965722061747461636b656420626f73732e204e657720626f73732068703a2025734142434445464748494a4b4c4d4e4f505152535455565758595a6162636465666768696a6b6c6d6e6f707172737475767778797a303132333435363738392b2f426f73732061747461636b656420706c617965722e204e657720706c617965722068703a2025730a0a506c6179657220772f206368617261637465722025732061626f757420746f2061747461636b2e2048617320257320485020616e64202573204144a26469706673582212204fbf99c22f664c4f4fb62967f7310b14a02bf8ae6da2dbca789b863826e1f79164736f6c63430008040033446f6e6520696e697469616c697a696e6720257320772f2048502025732c20696d67202573",
  "linkReferences": {},
  "deployedLinkReferences": {}
}